{
  "_format": "hh-sol-artifact-1",
  "contractName": "Stampfy",
  "sourceName": "contracts/Stampfy.sol",
  "abi": [
    {
      "anonymous": false,
      "inputs": [
        {
          "indexed": false,
          "internalType": "string",
          "name": "hash",
          "type": "string"
        },
        {
          "indexed": false,
          "internalType": "string",
          "name": "credType",
          "type": "string"
        },
        {
          "indexed": false,
          "internalType": "string",
          "name": "ownerDID",
          "type": "string"
        },
        {
          "indexed": false,
          "internalType": "string",
          "name": "issuerDID",
          "type": "string"
        },
        {
          "indexed": false,
          "internalType": "uint256",
          "name": "timestamp",
          "type": "uint256"
        },
        {
          "indexed": false,
          "internalType": "address",
          "name": "issuer",
          "type": "address"
        }
      ],
      "name": "CredentialRegistered",
      "type": "event"
    },
    {
      "inputs": [
        {
          "internalType": "uint256",
          "name": "",
          "type": "uint256"
        }
      ],
      "name": "credentials",
      "outputs": [
        {
          "internalType": "string",
          "name": "hash",
          "type": "string"
        },
        {
          "internalType": "string",
          "name": "credType",
          "type": "string"
        },
        {
          "internalType": "string",
          "name": "ownerDID",
          "type": "string"
        },
        {
          "internalType": "string",
          "name": "issuerDID",
          "type": "string"
        },
        {
          "internalType": "uint256",
          "name": "timestamp",
          "type": "uint256"
        },
        {
          "internalType": "address",
          "name": "issuer",
          "type": "address"
        }
      ],
      "stateMutability": "view",
      "type": "function"
    },
    {
      "inputs": [],
      "name": "getAllCredentials",
      "outputs": [
        {
          "components": [
            {
              "internalType": "string",
              "name": "hash",
              "type": "string"
            },
            {
              "internalType": "string",
              "name": "credType",
              "type": "string"
            },
            {
              "internalType": "string",
              "name": "ownerDID",
              "type": "string"
            },
            {
              "internalType": "string",
              "name": "issuerDID",
              "type": "string"
            },
            {
              "internalType": "uint256",
              "name": "timestamp",
              "type": "uint256"
            },
            {
              "internalType": "address",
              "name": "issuer",
              "type": "address"
            }
          ],
          "internalType": "struct Stampfy.Credential[]",
          "name": "",
          "type": "tuple[]"
        }
      ],
      "stateMutability": "view",
      "type": "function"
    },
    {
      "inputs": [
        {
          "internalType": "string",
          "name": "_hash",
          "type": "string"
        },
        {
          "internalType": "string",
          "name": "_credType",
          "type": "string"
        },
        {
          "internalType": "string",
          "name": "_ownerDID",
          "type": "string"
        },
        {
          "internalType": "string",
          "name": "_issuerDID",
          "type": "string"
        }
      ],
      "name": "registerCredential",
      "outputs": [],
      "stateMutability": "nonpayable",
      "type": "function"
    }
  ],
  "bytecode": "0x6080604052348015600f57600080fd5b5061108c8061001f6000396000f3fe608060405234801561001057600080fd5b50600436106100415760003560e01c8063729ff8b5146100465780637fd615c214610062578063e0574e3f14610080575b600080fd5b610060600480360381019061005b9190610908565b6100b5565b005b61006a61021b565b6040516100779190610c18565b60405180910390f35b61009a60048036038101906100959190610c66565b610522565b6040516100ac96959493929190610cfb565b60405180910390f35b60006040518060c001604052808681526020018581526020018481526020018381526020014281526020013373ffffffffffffffffffffffffffffffffffffffff1681525090506000819080600181540180825580915050600190039060005260206000209060060201600090919091909150600082015181600001908161013d9190610f84565b5060208201518160010190816101539190610f84565b5060408201518160020190816101699190610f84565b50606082015181600301908161017f9190610f84565b506080820151816004015560a08201518160050160006101000a81548173ffffffffffffffffffffffffffffffffffffffff021916908373ffffffffffffffffffffffffffffffffffffffff16021790555050507fb8a330439b632a85e91c171eaed15bcf74fab7453a6fbcf4796b300da725bc5785858585423360405161020c96959493929190610cfb565b60405180910390a15050505050565b60606000805480602002602001604051908101604052809291908181526020016000905b8282101561051957838290600052602060002090600602016040518060c001604052908160008201805461027290610da7565b80601f016020809104026020016040519081016040528092919081815260200182805461029e90610da7565b80156102eb5780601f106102c0576101008083540402835291602001916102eb565b820191906000526020600020905b8154815290600101906020018083116102ce57829003601f168201915b5050505050815260200160018201805461030490610da7565b80601f016020809104026020016040519081016040528092919081815260200182805461033090610da7565b801561037d5780601f106103525761010080835404028352916020019161037d565b820191906000526020600020905b81548152906001019060200180831161036057829003601f168201915b5050505050815260200160028201805461039690610da7565b80601f01602080910402602001604051908101604052809291908181526020018280546103c290610da7565b801561040f5780601f106103e45761010080835404028352916020019161040f565b820191906000526020600020905b8154815290600101906020018083116103f257829003601f168201915b5050505050815260200160038201805461042890610da7565b80601f016020809104026020016040519081016040528092919081815260200182805461045490610da7565b80156104a15780601f10610476576101008083540402835291602001916104a1565b820191906000526020600020905b81548152906001019060200180831161048457829003601f168201915b50505050508152602001600482015481526020016005820160009054906101000a900473ffffffffffffffffffffffffffffffffffffffff1673ffffffffffffffffffffffffffffffffffffffff1673ffffffffffffffffffffffffffffffffffffffff16815250508152602001906001019061023f565b50505050905090565b6000818154811061053257600080fd5b906000526020600020906006020160009150905080600001805461055590610da7565b80601f016020809104026020016040519081016040528092919081815260200182805461058190610da7565b80156105ce5780601f106105a3576101008083540402835291602001916105ce565b820191906000526020600020905b8154815290600101906020018083116105b157829003601f168201915b5050505050908060010180546105e390610da7565b80601f016020809104026020016040519081016040528092919081815260200182805461060f90610da7565b801561065c5780601f106106315761010080835404028352916020019161065c565b820191906000526020600020905b81548152906001019060200180831161063f57829003601f168201915b50505050509080600201805461067190610da7565b80601f016020809104026020016040519081016040528092919081815260200182805461069d90610da7565b80156106ea5780601f106106bf576101008083540402835291602001916106ea565b820191906000526020600020905b8154815290600101906020018083116106cd57829003601f168201915b5050505050908060030180546106ff90610da7565b80601f016020809104026020016040519081016040528092919081815260200182805461072b90610da7565b80156107785780601f1061074d57610100808354040283529160200191610778565b820191906000526020600020905b81548152906001019060200180831161075b57829003601f168201915b5050505050908060040154908060050160009054906101000a900473ffffffffffffffffffffffffffffffffffffffff16905086565b6000604051905090565b600080fd5b600080fd5b600080fd5b600080fd5b6000601f19601f8301169050919050565b7f4e487b7100000000000000000000000000000000000000000000000000000000600052604160045260246000fd5b610815826107cc565b810181811067ffffffffffffffff82111715610834576108336107dd565b5b80604052505050565b60006108476107ae565b9050610853828261080c565b919050565b600067ffffffffffffffff821115610873576108726107dd565b5b61087c826107cc565b9050602081019050919050565b82818337600083830152505050565b60006108ab6108a684610858565b61083d565b9050828152602081018484840111156108c7576108c66107c7565b5b6108d2848285610889565b509392505050565b600082601f8301126108ef576108ee6107c2565b5b81356108ff848260208601610898565b91505092915050565b60008060008060808587031215610922576109216107b8565b5b600085013567ffffffffffffffff8111156109405761093f6107bd565b5b61094c878288016108da565b945050602085013567ffffffffffffffff81111561096d5761096c6107bd565b5b610979878288016108da565b935050604085013567ffffffffffffffff81111561099a576109996107bd565b5b6109a6878288016108da565b925050606085013567ffffffffffffffff8111156109c7576109c66107bd565b5b6109d3878288016108da565b91505092959194509250565b600081519050919050565b600082825260208201905092915050565b6000819050602082019050919050565b600081519050919050565b600082825260208201905092915050565b60005b83811015610a45578082015181840152602081019050610a2a565b60008484015250505050565b6000610a5c82610a0b565b610a668185610a16565b9350610a76818560208601610a27565b610a7f816107cc565b840191505092915050565b6000819050919050565b610a9d81610a8a565b82525050565b600073ffffffffffffffffffffffffffffffffffffffff82169050919050565b6000610ace82610aa3565b9050919050565b610ade81610ac3565b82525050565b600060c0830160008301518482036000860152610b018282610a51565b91505060208301518482036020860152610b1b8282610a51565b91505060408301518482036040860152610b358282610a51565b91505060608301518482036060860152610b4f8282610a51565b9150506080830151610b646080860182610a94565b5060a0830151610b7760a0860182610ad5565b508091505092915050565b6000610b8e8383610ae4565b905092915050565b6000602082019050919050565b6000610bae826109df565b610bb881856109ea565b935083602082028501610bca856109fb565b8060005b85811015610c065784840389528151610be78582610b82565b9450610bf283610b96565b925060208a01995050600181019050610bce565b50829750879550505050505092915050565b60006020820190508181036000830152610c328184610ba3565b905092915050565b610c4381610a8a565b8114610c4e57600080fd5b50565b600081359050610c6081610c3a565b92915050565b600060208284031215610c7c57610c7b6107b8565b5b6000610c8a84828501610c51565b91505092915050565b600082825260208201905092915050565b6000610caf82610a0b565b610cb98185610c93565b9350610cc9818560208601610a27565b610cd2816107cc565b840191505092915050565b610ce681610a8a565b82525050565b610cf581610ac3565b82525050565b600060c0820190508181036000830152610d158189610ca4565b90508181036020830152610d298188610ca4565b90508181036040830152610d3d8187610ca4565b90508181036060830152610d518186610ca4565b9050610d606080830185610cdd565b610d6d60a0830184610cec565b979650505050505050565b7f4e487b7100000000000000000000000000000000000000000000000000000000600052602260045260246000fd5b60006002820490506001821680610dbf57607f821691505b602082108103610dd257610dd1610d78565b5b50919050565b60008190508160005260206000209050919050565b60006020601f8301049050919050565b600082821b905092915050565b600060088302610e3a7fffffffffffffffffffffffffffffffffffffffffffffffffffffffffffffffff82610dfd565b610e448683610dfd565b95508019841693508086168417925050509392505050565b6000819050919050565b6000610e81610e7c610e7784610a8a565b610e5c565b610a8a565b9050919050565b6000819050919050565b610e9b83610e66565b610eaf610ea782610e88565b848454610e0a565b825550505050565b600090565b610ec4610eb7565b610ecf818484610e92565b505050565b5b81811015610ef357610ee8600082610ebc565b600181019050610ed5565b5050565b601f821115610f3857610f0981610dd8565b610f1284610ded565b81016020851015610f21578190505b610f35610f2d85610ded565b830182610ed4565b50505b505050565b600082821c905092915050565b6000610f5b60001984600802610f3d565b1980831691505092915050565b6000610f748383610f4a565b9150826002028217905092915050565b610f8d82610a0b565b67ffffffffffffffff811115610fa657610fa56107dd565b5b610fb08254610da7565b610fbb828285610ef7565b600060209050601f831160018114610fee5760008415610fdc578287015190505b610fe68582610f68565b86555061104e565b601f198416610ffc86610dd8565b60005b8281101561102457848901518255600182019150602085019450602081019050610fff565b86831015611041578489015161103d601f891682610f4a565b8355505b6001600288020188555050505b50505050505056fea26469706673582212203a28820d9c181dffb3d5439c68c94a5904ee69330aac917ba81bd4d0306c1bce64736f6c634300081c0033",
  "linkReferences": {},
  "deployedLinkReferences": {}
}